:100000000C942A000C9434000C9434000C943400AA
:100010000C9434000C9434000C9434000C94340090
:100020000C9434000C9434000C9434000C94340080
:100030000C9434000C9434000C9434000C94340070
:100040000C9434000C9434000C9434000C94340060
:100050000C94340011241FBECFE5D8E0DEBFCDBF25
:100060000E9441000C9454000C94000090BD89B98A
:1000700088E18AB986E880BD08955D9BFECF8CB982
:1000800008951ABA83E390E00E943600C899FECF23
:1000900083ED90E30197F1F700C00000C899F6CF17
:0C00A00081E00E943D00F2CFF894FFCFF9
:00000001FF
