:100000000C942A000C9434000C9434000C943400AA
:100010000C9434000C9434000C9434000C94340090
:100020000C9434000C9434000C9434000C94340080
:100030000C9434000C9434000C9434000C94340070
:100040000C9434000C9434000C9434000C94340060
:100050000C94340011241FBECFE5D8E0DEBFCDBF25
:100060000E9441000C9453000C94000090BD89B98B
:1000700088E18AB986E880BD08955D9BFECF8CB982
:1000800008951ABA83E390E00E94360089B30E9473
:100090003D002FE788E391E0215080409040E1F758
:0A00A00000C00000F3CFF894FFCF7A
:00000001FF
