:100000000C942A000C9434000C9434000C943400AA
:100010000C9434000C9434000C9434000C94340090
:100020000C9434000C9434000C9434000C94340080
:100030000C9434000C9434000C9434000C94340070
:100040000C9434000C9434000C9434000C94340060
:100050000C94340011241FBECFE5D8E0DEBFCDBF25
:100060000E9441000C944B000C94000090BD89B993
:1000700088E18AB986E880BD08955F9BFECF8CB188
:1000800008958FEF8ABB83E390E00E9436000E94C0
:0A0090003D008BBBFCCFF894FFCFBE
:00000001FF
