:100000000C942A000C9434000C9434000C943400AA
:100010000C9434000C9434000C9434000C94340090
:100020000C9434000C9434000C9434000C94340080
:100030000C9434000C9434000C9434000C94340070
:100040000C9434000C9434000C9434000C94340060
:100050000C94340011241FBECFE5D8E0DEBFCDBF25
:100060000E9441000C9454000C94000090BD89B98A
:1000700088E18AB986E880BD08955F9BFECF8CB188
:10008000089581B3846081BB83E390E00E943600D1
:100090000E943D00813021F482B3846082BBF8CF9E
:0C00A00082B38B7F82BBF4CFF894FFCFBB
:00000001FF
